:100000000C942A000C943F000C943F000C943F0089
:100010000C943F000C943F000C943F000C943F0064
:100020000C943F000C943F000C943F000C943F0054
:100030000C943F000C943F000C943F000C943F0044
:100040000C943F000C943F000C943F000C943F0034
:100050000C943F0011241FBECFE5D8E0DEBFCDBF1A
:1000600010E0A0E6B0E0E0EDF1E002C005900D92F6
:10007000A036B107D9F70E9441000C94E6000C9419
:1000800000000E94D2000E94D7000E94AB000E9494
:1000900088000E94A300EC010E94A700853C29E093
:1000A000920764F48C33964F5CF0C53C89E0D80726
:1000B0004CF4CC33D64F44F48CE407C086E405C03E
:1000C00082E403C082E501C083E50E94E200E1CF43
:1000D000CF93DF93C82F0E94B40080ED0E94BD0033
:1000E0008C2F0E94BD000E94B40081ED0E94BD00D3
:1000F0000E94C400C82F0E94CB00D82F0E94BA00D3
:100100008C2F90E0982F88278D2BDF91CF91089529
:100110000E94B40080ED0E94BD008BE60E94BD00ED
:1001200080E00E94BD000E94BA000E94B40080EDF1
:100130000E94BD008CE10E94BD0080E00E94BD00D5
:100140000E94BA0008958BE30E94680008958FE32F
:100150000E94680008958CE080B981B18C7F81B9DC
:1001600086B7846086BF089584EA86BF06B607FE18
:10017000FDCF089584E986BF089583B984E886BFDA
:1001800006B607FEFDCF089584EC86BF06B607FECF
:10019000FDCF83B1089584E886BF06B607FEFDCF84
:1001A00083B108958BE083BF89EF8CBF089587E604
:1001B00089B986E880BD8AB188608AB98AB18061D0
:1001C0008AB908958CB95D9BFECF0895F894FFCF4E
:00000001FF
