:100000000C942A000C943F000C943F000C943F0089
:100010000C943F000C943F000C943F000C943F0064
:100020000C943F000C943F000C943F000C943F0054
:100030000C943F000C943F000C943F000C943F0044
:100040000C943F000C943F000C943F000C943F0034
:100050000C943F0011241FBECFE5D8E0DEBFCDBF1A
:1000600010E0A0E6B0E0E8EAF6E002C005900D92EC
:10007000A638B107D9F70E9441000C9452030C94A2
:1000800000000E94E2020E94F7020E941B030E94ED
:10009000B5000E94A0010E9426038C3481F128F44F
:1000A0008234D9F0863439F0F6CF8235D1F18335F8
:1000B00009F449C0F0CF60E080E00E94E30161E014
:1000C00080E00E94E30186E40E94D4000E949C012B
:1000D00080E690E00E94C101DECF82E30E94EB0047
:1000E00060E080E00E94D40161E080E00E94D401E1
:1000F0000E949C0188E690E00E94C101CCCF60E0A4
:1001000080E00E94E30161E080E00E94E30186E478
:100110000E9402010E949C0181E790E00E94C101BF
:10012000BACF60E080E00E94E30161E080E00E94DD
:10013000E30186E40E9419010E949C0186E790E099
:100140000E94C101A8CF60E080E00E94E30161E06D
:1001500080E00E94E30180E00E9430010E949C0147
:100160008CE790E00E94C10196CF41E067E082E019
:100170000E94F20141E067E082E00E94F20141E06A
:1001800060E082E00E94F20141E061E082E00E94D2
:10019000F20141E066E082E00E94F20141E067E0A6
:1001A00082E00E94F20108950E940E0341E060E0A7
:1001B00082E00E94620240E061E082E00E9462020E
:1001C00041E066E082E00E94620240E067E082E097
:1001D0000E94620208950E940E0340E060E082E007
:1001E0000E94620241E061E082E00E94620240E01F
:1001F00066E082E00E94620241E067E082E00E94E5
:10020000620208950E940E0340E060E082E00E94D6
:10021000620240E061E082E00E94620241E066E04A
:1002200082E00E94620240E067E082E00E94620297
:1002300008950E940E0341E060E082E00E946202A5
:1002400040E061E082E00E94620240E066E082E01D
:100250000E94620240E067E082E00E94620208952C
:100260000E940E0340E060E082E00E94620240E0F3
:1002700061E082E00E94620240E066E082E00E946B
:10028000620240E067E082E00E9462020895CF933C
:10029000DF93D82FC0E012C0EC2FF0E04D2F50E0DC
:1002A0000C2E02C0559547950A94E2F74170EF571E
:1002B000FF4F608180E00E946202CF5FC43060F334
:1002C000DF91CF91089541E061E081E00E946202F8
:1002D00081E090E00E94E70240E061E081E00E945E
:1002E00062020895CF93C82F40E060E081E00E9451
:1002F00062028C2F82958F700E9447010E946301D9
:100300008C2F0E9447010E946301CF910895CF93E3
:10031000C82F41E060E081E00E9462028C2F82954C
:100320008F700E9447010E9463018C2F0E94470139
:100330000E946301CF91089581E00E9472010895A7
:1003400063E081E00E94D20260EF80E00E94D2026E
:1003500088E290E00E94E70282E00E9447010E944A
:10036000630182E00E9447010E94630188E00E94CD
:1003700047010E9463018CE00E9472010E949C016F
:1003800008950F931F93CF938C01C0E003C00E9488
:100390008701CF5FF801EC0FF11D80818111F7CF4C
:1003A000CF911F910F910895CF93DF93C82FD62F30
:1003B00041E00E94F20141E06D2F8C2F0E94620209
:1003C000DF91CF910895CF93DF93C82FD62F41E0CF
:1003D0000E94F20140E06D2F8C2F0E946202DF919B
:1003E000CF9108954130A1F5813089F028F0823015
:1003F000C9F0833011F108952AB381E090E002C082
:10040000880F991F6A95E2F7822B8ABB089527B35C
:1004100081E090E002C0880F991F6A95E2F7822B75
:1004200087BB089524B381E090E002C0880F991F34
:100430006A95E2F7822B84BB089521B381E090E0B6
:1004400002C0880F991F6A95E2F7822B81BB08953D
:10045000411137C0813091F028F08230D9F08330DB
:1004600029F108952AB381E090E002C0880F991F16
:100470006A95E2F7809582238ABB089527B381E0CD
:1004800090E002C0880F991F6A95E2F78095822359
:1004900087BB089524B381E090E002C0880F991FC4
:1004A0006A95E2F78095822384BB089521B381E0A9
:1004B00090E002C0880F991F6A95E2F78095822329
:1004C00081BB08954130A1F5813089F028F0823058
:1004D000C9F0833011F108952BB381E090E002C0A0
:1004E000880F991F6A95E2F7822B8BBB089528B37A
:1004F00081E090E002C0880F991F6A95E2F7822B95
:1005000088BB089525B381E090E002C0880F991F51
:100510006A95E2F7822B85BB089522B381E090E0D3
:1005200002C0880F991F6A95E2F7822B82BB08955B
:10053000411137C0813091F028F08230D9F08330FA
:1005400029F108952BB381E090E002C0880F991F34
:100550006A95E2F7809582238BBB089528B381E0EA
:1005600090E002C0880F991F6A95E2F78095822378
:1005700088BB089525B381E090E002C0880F991FE1
:100580006A95E2F78095822385BB089522B381E0C6
:1005900090E002C0880F991F6A95E2F78095822348
:1005A00082BB0895813041F028F0823039F08330E9
:1005B00039F008956ABB089567BB089564BB089538
:1005C00061BB08958BE083BF89EF8CBF0895AC01B8
:1005D00020E030E008C008B601FEFDCF98B7926079
:1005E00098BF2F5F3F4F24173507A8F3089585B5AF
:1005F000886085BD85B5806485BD85B5806285BD13
:1006000085B58F7E85BD85B5846085BD85B58D7FBB
:1006100085BD85B58E7F85BD13BC0895853608F0F0
:1006200084E62FEF829FC001112464E670E00E94EF
:100630002A0363BD089587E689B986E880BD8AB13B
:1006400088608AB98AB180618AB908955F9BFECFBC
:100650008CB1089597FB072E16F4009407D077FD10
:1006600009D00E943E0307FC05D03EF49095819589
:100670009F4F0895709561957F4F0895AA1BBB1BEE
:1006800051E107C0AA1FBB1FA617B70710F0A61B92
:10069000B70B881F991F5A95A9F780959095BC01B3
:0806A000CD010895F894FFCF8D
:1006A800466F7277617264004261636B776172644E
:1006B800004C6566740052696768740053746F7003
:0606C80000040506070016
:00000001FF
